{
  "_format": "hh-sol-artifact-1",
  "contractName": "Escrow",
  "sourceName": "contracts/Escrow.sol",
  "abi": [
    {
      "inputs": [
        {
          "internalType": "address payable",
          "name": "_buyer",
          "type": "address"
        },
        {
          "internalType": "address payable",
          "name": "_seller",
          "type": "address"
        }
      ],
      "stateMutability": "nonpayable",
      "type": "constructor"
    },
    {
      "inputs": [],
      "name": "Escrow__InsufficientAmountDeposited",
      "type": "error"
    },
    {
      "inputs": [],
      "name": "Escrow__NotAdminRequestDenied",
      "type": "error"
    },
    {
      "inputs": [],
      "name": "Escrow__OnlyBuyerConfirmDeposit",
      "type": "error"
    },
    {
      "inputs": [],
      "name": "Escrow__OnlyBuyerDepositAllowed",
      "type": "error"
    },
    {
      "anonymous": false,
      "inputs": [
        {
          "indexed": true,
          "internalType": "address",
          "name": "buyerAddress",
          "type": "address"
        }
      ],
      "name": "DeliveryConfirmed",
      "type": "event"
    },
    {
      "anonymous": false,
      "inputs": [
        {
          "indexed": true,
          "internalType": "address",
          "name": "buyerAddress",
          "type": "address"
        },
        {
          "indexed": true,
          "internalType": "uint256",
          "name": "amount",
          "type": "uint256"
        }
      ],
      "name": "Deposit",
      "type": "event"
    },
    {
      "anonymous": false,
      "inputs": [
        {
          "indexed": true,
          "internalType": "address",
          "name": "buyerAddress",
          "type": "address"
        },
        {
          "indexed": true,
          "internalType": "address",
          "name": "sellerAddress",
          "type": "address"
        },
        {
          "indexed": false,
          "internalType": "uint256",
          "name": "amount",
          "type": "uint256"
        }
      ],
      "name": "PaymentReleased",
      "type": "event"
    },
    {
      "anonymous": false,
      "inputs": [
        {
          "indexed": true,
          "internalType": "address",
          "name": "sellerAddress",
          "type": "address"
        }
      ],
      "name": "ReceiptDone",
      "type": "event"
    },
    {
      "inputs": [
        {
          "internalType": "address payable",
          "name": "buyer",
          "type": "address"
        },
        {
          "internalType": "address payable",
          "name": "seller",
          "type": "address"
        }
      ],
      "name": "addParties",
      "outputs": [],
      "stateMutability": "nonpayable",
      "type": "function"
    },
    {
      "inputs": [],
      "name": "confirmBuyerReceipt",
      "outputs": [],
      "stateMutability": "payable",
      "type": "function"
    },
    {
      "inputs": [],
      "name": "confirmSellerDelivery",
      "outputs": [],
      "stateMutability": "payable",
      "type": "function"
    },
    {
      "inputs": [],
      "name": "deposit",
      "outputs": [],
      "stateMutability": "payable",
      "type": "function"
    },
    {
      "inputs": [],
      "name": "getAdmin",
      "outputs": [
        {
          "internalType": "address",
          "name": "",
          "type": "address"
        }
      ],
      "stateMutability": "view",
      "type": "function"
    },
    {
      "inputs": [],
      "name": "getBalance",
      "outputs": [
        {
          "internalType": "uint256",
          "name": "",
          "type": "uint256"
        }
      ],
      "stateMutability": "view",
      "type": "function"
    },
    {
      "inputs": [],
      "name": "getBuyer",
      "outputs": [
        {
          "internalType": "address",
          "name": "",
          "type": "address"
        }
      ],
      "stateMutability": "view",
      "type": "function"
    },
    {
      "inputs": [],
      "name": "getBuyerConfirmation",
      "outputs": [
        {
          "internalType": "bool",
          "name": "",
          "type": "bool"
        }
      ],
      "stateMutability": "view",
      "type": "function"
    },
    {
      "inputs": [],
      "name": "getSeller",
      "outputs": [
        {
          "internalType": "address",
          "name": "",
          "type": "address"
        }
      ],
      "stateMutability": "view",
      "type": "function"
    },
    {
      "inputs": [],
      "name": "getSellerConfirmation",
      "outputs": [
        {
          "internalType": "bool",
          "name": "",
          "type": "bool"
        }
      ],
      "stateMutability": "view",
      "type": "function"
    }
  ],
  "bytecode": "0x608060405234801561001057600080fd5b50604051610bb2380380610bb283398181016040528101906100329190610166565b336000806101000a81548173ffffffffffffffffffffffffffffffffffffffff021916908373ffffffffffffffffffffffffffffffffffffffff16021790555081600160006101000a81548173ffffffffffffffffffffffffffffffffffffffff021916908373ffffffffffffffffffffffffffffffffffffffff16021790555080600260006101000a81548173ffffffffffffffffffffffffffffffffffffffff021916908373ffffffffffffffffffffffffffffffffffffffff160217905550600060038190555050506101a6565b600080fd5b600073ffffffffffffffffffffffffffffffffffffffff82169050919050565b600061013382610108565b9050919050565b61014381610128565b811461014e57600080fd5b50565b6000815190506101608161013a565b92915050565b6000806040838503121561017d5761017c610103565b5b600061018b85828601610151565b925050602061019c85828601610151565b9150509250929050565b6109fd806101b56000396000f3fe6080604052600436106100905760003560e01c8063614439c011610059578063614439c01461012a5780636e9960c314610155578063b840657b14610180578063d0e30db0146101a9578063dbd0e1b6146101b357610090565b80623009c81461009557806312065fe0146100c05780631991b997146100eb578063400d717c146100f5578063603daf9a146100ff575b600080fd5b3480156100a157600080fd5b506100aa6101de565b6040516100b79190610836565b60405180910390f35b3480156100cc57600080fd5b506100d56101f5565b6040516100e2919061086a565b60405180910390f35b6100f36101ff565b005b6100fd6103bb565b005b34801561010b57600080fd5b5061011461055c565b60405161012191906108c6565b60405180910390f35b34801561013657600080fd5b5061013f610586565b60405161014c9190610836565b60405180910390f35b34801561016157600080fd5b5061016a61059d565b60405161017791906108c6565b60405180910390f35b34801561018c57600080fd5b506101a760048036038101906101a29190610924565b6105c6565b005b6101b16106d1565b005b3480156101bf57600080fd5b506101c86107f1565b6040516101d591906108c6565b60405180910390f35b6000600460019054906101000a900460ff16905090565b6000600354905090565b600160009054906101000a900473ffffffffffffffffffffffffffffffffffffffff1673ffffffffffffffffffffffffffffffffffffffff163373ffffffffffffffffffffffffffffffffffffffff1614610286576040517f03fa8b1800000000000000000000000000000000000000000000000000000000815260040160405180910390fd5b6001600460006101000a81548160ff0219169083151502179055503373ffffffffffffffffffffffffffffffffffffffff167f7fe25e02f602b412aee7591e6643616f1f1259a4ca6a3ee3387fef583badcd0e60405160405180910390a2600460009054906101000a900460ff16801561030c5750600460019054906101000a900460ff165b156103b957600260009054906101000a900473ffffffffffffffffffffffffffffffffffffffff1673ffffffffffffffffffffffffffffffffffffffff166108fc479081150290604051600060405180830381858888f19350505050158015610379573d6000803e3d6000fd5b506000600460006101000a81548160ff0219169083151502179055506000600460016101000a81548160ff02191690831515021790555060006003819055505b565b600260009054906101000a900473ffffffffffffffffffffffffffffffffffffffff1673ffffffffffffffffffffffffffffffffffffffff163373ffffffffffffffffffffffffffffffffffffffff1614610442576040517f03fa8b1800000000000000000000000000000000000000000000000000000000815260040160405180910390fd5b6001600460016101000a81548160ff0219169083151502179055503373ffffffffffffffffffffffffffffffffffffffff167f2268e0e4ba45f20a48e5394b7c7d8dac5fca46a331c75fd878b5fd47fc1f267c60405160405180910390a2600460009054906101000a900460ff1680156104c85750600460019054906101000a900460ff165b1561055a57600260009054906101000a900473ffffffffffffffffffffffffffffffffffffffff1673ffffffffffffffffffffffffffffffffffffffff166108fc479081150290604051600060405180830381858888f19350505050158015610535573d6000803e3d6000fd5b506001600460016101000a81548160ff02191690831515021790555060006003819055505b565b6000600160009054906101000a900473ffffffffffffffffffffffffffffffffffffffff16905090565b6000600460009054906101000a900460ff16905090565b60008060009054906101000a900473ffffffffffffffffffffffffffffffffffffffff16905090565b60008054906101000a900473ffffffffffffffffffffffffffffffffffffffff1673ffffffffffffffffffffffffffffffffffffffff163373ffffffffffffffffffffffffffffffffffffffff161461064b576040517f4b15f5d000000000000000000000000000000000000000000000000000000000815260040160405180910390fd5b81600160006101000a81548173ffffffffffffffffffffffffffffffffffffffff021916908373ffffffffffffffffffffffffffffffffffffffff16021790555080600260006101000a81548173ffffffffffffffffffffffffffffffffffffffff021916908373ffffffffffffffffffffffffffffffffffffffff1602179055505050565b600160009054906101000a900473ffffffffffffffffffffffffffffffffffffffff1673ffffffffffffffffffffffffffffffffffffffff163373ffffffffffffffffffffffffffffffffffffffff1614610758576040517f1e87029700000000000000000000000000000000000000000000000000000000815260040160405180910390fd5b60003411610792576040517f0dd7ae7b00000000000000000000000000000000000000000000000000000000815260040160405180910390fd5b34600360008282546107a49190610993565b92505081905550343373ffffffffffffffffffffffffffffffffffffffff167fe1fffcc4923d04b559f4d29a8bfc6cda04eb5b0d3c460751c2402c5c5cc9109c60405160405180910390a3565b6000600260009054906101000a900473ffffffffffffffffffffffffffffffffffffffff16905090565b60008115159050919050565b6108308161081b565b82525050565b600060208201905061084b6000830184610827565b92915050565b6000819050919050565b61086481610851565b82525050565b600060208201905061087f600083018461085b565b92915050565b600073ffffffffffffffffffffffffffffffffffffffff82169050919050565b60006108b082610885565b9050919050565b6108c0816108a5565b82525050565b60006020820190506108db60008301846108b7565b92915050565b600080fd5b60006108f182610885565b9050919050565b610901816108e6565b811461090c57600080fd5b50565b60008135905061091e816108f8565b92915050565b6000806040838503121561093b5761093a6108e1565b5b60006109498582860161090f565b925050602061095a8582860161090f565b9150509250929050565b7f4e487b7100000000000000000000000000000000000000000000000000000000600052601160045260246000fd5b600061099e82610851565b91506109a983610851565b92508282019050808211156109c1576109c0610964565b5b9291505056fea2646970667358221220053921a6e25a70f3fbdb6d5eefed18c8061c18bff4ec4b3caf7c55467a1eadc364736f6c63430008120033",
  "linkReferences": {},
  "deployedLinkReferences": {}
}